:1000000012C021C020C01FC01EC01DC01CC01BC00C
:100010001AC019C018C017C016C015C014C013C02C
:1000200012C011C010C011241FBECFE5D4E0DEBF46
:10003000CDBF10E0A0E6B0E001C01D92A436B1072C
:10004000E1F702D040C0DCCFDF93CF93CDB7DEB76E
:1000500087E390E020E2FC01208388E390E02EE03B
:10006000FC01208386E390E0FC0180818295807F03
:100070008093630086E390E0FC018081880F880F05
:10008000880F8093620086E390E0FC018081880FF6
:10009000880F809361009091630080916200982B9B
:1000A0008091610089278093600088E390E028E3D5
:1000B00030E0F9012081322F3F7D20916000232B19
:0A00C000FC012083CFCFF894FFCF9E
:00000001FF
