:1000000012C02CC02BC02AC029C028C027C026C0BF
:1000100025C024C023C022C021C020C01FC01EC0D4
:100020001DC01CC01BC011241FBECFE5D4E0DEBF25
:10003000CDBF10E0A8E6B0E001C01D92AD36B1071B
:10004000E1F710E0A0E6B0E0E6E8F7E102C00590D5
:100050000D92A836B107D9F734D693CBD1CF0F93F1
:100060001F93DF93CF93CDB7DEB7AA970FB6F8945F
:10007000DEBF0FBECDBF88E390E0FC01108280E0C0
:1000800090E0A6E1B3E489839A83AB83BC83698162
:100090007A818B819C8120E030E04AE753E4E6D707
:1000A000DC01CB018D839E83AF83B88711E06D8126
:1000B0007E818F81988520E030E040E85FE321D9A0
:1000C00088230CF010E0112329F081E090E09A875A
:1000D000898742C011E06D817E818F81988520E003
:1000E0003FEF4FE757E4B7D818160CF010E0112394
:1000F00051F169817A818B819C8120E030E040E27E
:1001000051E4B4D7DC01CB01BC01CD01EDD5DC015C
:10011000CB019A87898712C089E190E09C878B8701
:100120008B859C858C01C8010197F1F78C011C8798
:100130000B8789859A8501979A87898789859A850A
:10014000009751F716C06D817E818F819885CCD53F
:10015000DC01CB019A87898789859A859E878D875F
:100160008D859E858C01F8013197F1F78F011E87EF
:100170000D8788E390E021E0FC0120831092680065
:100180001FC180E090E0A6E1B3E48F87988BA98B34
:10019000BA8B6F85788989899A8920E030E04AE7AF
:1001A00053E464D7DC01CB018B8B9C8BAD8BBE8B76
:1001B00011E06B897C898D899E8920E030E040E8E0
:1001C0005FE39FD888230CF010E0112329F081E031
:1001D00090E0988F8F8B42C011E06B897C898D896C
:1001E0009E8920E03FEF4FE757E435D818160CF012
:1001F00010E0112351F16F85788989899A8920E06F
:1002000030E040E251E432D7DC01CB01BC01CD014A
:100210006BD5DC01CB01988F8F8B12C089E190E008
:100220009A8F898F898D9A8D8C01C8010197F1F77A
:100230008C011A8F098F8F89988D0197988F8F8BDA
:100240008F89988D009751F716C06B897C898D89AD
:100250009E894AD5DC01CB01988F8F8B8F89988D31
:100260009C8F8B8F8B8D9C8D8C01F8013197F1F7D2
:100270008F011C8F0B8F88E390E028E330E0F901B9
:100280002081220FFC01208388E390E0FC01808123
:10029000803809F090C01092680088C080E090E03B
:1002A000A6E1B3E48D8F9E8FAF8FB8A36D8D7E8D49
:1002B0008F8D98A120E030E04AE753E4D7D6DC01E7
:1002C000CB0189A39AA3ABA3BCA311E069A17AA136
:1002D0008BA19CA120E030E040E85FE312D88823A6
:1002E0000CF010E0112329F081E090E09EA38DA393
:1002F00042C011E069A17AA18BA19CA120E03FEF4F
:100300004FE757E4A8D718160CF010E0112351F16D
:100310006D8D7E8D8F8D98A120E030E040E251E41C
:10032000A5D6DC01CB01BC01CD01DED4DC01CB01C3
:100330009EA38DA312C089E190E098A78FA38FA1FF
:1003400098A58C01C8010197F1F78C0118A70FA39C
:100350008DA19EA101979EA38DA38DA19EA1009723
:1003600051F716C069A17AA18BA19CA1BDD4DC0173
:10037000CB019EA38DA38DA19EA19AA789A789A534
:100380009AA58C01F8013197F1F78F011AA709A7F7
:1003900088E390E028E330E0F90120812695FC0114
:1003A0002083809168008F5F80936800809168004F
:1003B000883008F473CF809168008F5F8093680065
:1003C00080916800883008F4DCCE88E390E0FC017E
:1003D0001082AA960FB6F894DEBF0FBECDBFCF91A4
:1003E000DF911F910F9108950F931F93DF93CF9388
:1003F000CDB7DEB76C970FB6F894DEBF0FBECDBF9A
:100400001092680020C180E090E0A6E1B3E4898307
:100410009A83AB83BC8369817A818B819C8120E044
:1004200030E04AE753E422D6DC01CB018D839E8382
:10043000AF83B88711E06D817E818F81988520E040
:1004400030E040E85FE35DD788230CF010E0112333
:1004500029F081E090E09A87898742C011E06D81A0
:100460007E818F81988520E03FEF4FE757E4F3D6F8
:1004700018160CF010E0112351F169817A818B81FB
:100480009C8120E030E040E251E4F0D5DC01CB017A
:10049000BC01CD0129D4DC01CB019A87898712C028
:1004A00089E190E09C878B878B859C858C01C801B6
:1004B0000197F1F78C011C870B8789859A85019735
:1004C0009A87898789859A85009751F716C06D812B
:1004D0007E818F81988508D4DC01CB019A8789873A
:1004E00089859A859E878D878D859E858C01F801EB
:1004F0003197F1F78F011E870D8788E390E028E39D
:1005000030E0F9012081220F2F5FFC01208388E376
:1005100090E0FC0180818F3F09F090C0109268004C
:1005200088C080E090E0A6E1B3E48F87988BA98B28
:10053000BA8B6F85788989899A8920E030E04AE70B
:1005400053E494D5DC01CB018B8B9C8BAD8BBE8BA4
:1005500011E06B897C898D899E8920E030E040E83C
:100560005FE3CFD688230CF010E0112329F081E05F
:1005700090E0988F8F8B42C011E06B897C898D89C8
:100580009E8920E03FEF4FE757E465D618160CF040
:1005900010E0112351F16F85788989899A8920E0CB
:1005A00030E040E251E462D5DC01CB01BC01CD0179
:1005B0009BD3DC01CB01988F8F8B12C089E190E037
:1005C0009A8F898F898D9A8D8C01C8010197F1F7D7
:1005D0008C011A8F098F8F89988D0197988F8F8B37
:1005E0008F89988D009751F716C06B897C898D890A
:1005F0009E897AD3DC01CB01988F8F8B8F89988D60
:100600009C8F8B8F8B8D9C8D8C01F8013197F1F72E
:100610008F011C8F0B8F88E390E028E330E0F90115
:1006200020812695FC012083809168008F5F809354
:10063000680080916800883008F473CF809168006A
:100640008F5F8093680080916800883008F4DBCE6B
:100650006C960FB6F894DEBF0FBECDBFCF91DF9181
:100660001F910F9108950F931F93DF93CF93CDB7F1
:10067000DEB76E970FB6F894DEBF0FBECDBF80E039
:1006800090E0A6E1B3E48B839C83AD83BE836B8152
:100690007C818D819E8120E030E04AE753E4E6D4FE
:1006A000DC01CB018F839887A987BA8711E06F811E
:1006B000788589859A8520E030E040E85FE321D69F
:1006C00088230CF010E0112329F081E090E09C8752
:1006D0008B8742C011E06F81788589859A8520E0FB
:1006E0003FEF4FE757E4B7D518160CF010E0112391
:1006F00051F16B817C818D819E8120E030E040E270
:1007000051E4B4D4DC01CB01BC01CD01EDD2DC015C
:10071000CB019C878B8712C089E190E09E878D87F3
:100720008D859E858C01C8010197F1F78C011E878C
:100730000D878B859C8501979C878B878B859C85F6
:10074000009751F716C06F81788589859A85CCD23C
:10075000DC01CB019C878B878B859C85988B8F8751
:100760008F8598898C01F8013197F1F78F01188BEB
:100770000F871A821982A0C080916900882351F4E2
:1007800080916A00882331F480E88093690081E0D9
:1007900080936A0088E390E03091690020916A00BC
:1007A000232BFC01208380E090E0A6E1B3E4898B59
:1007B0009A8BAB8BBC8B69897A898B899C8920E069
:1007C00030E04AE753E452D4DC01CB018D8B9E8BA1
:1007D000AF8BB88F11E06D897E898F89988D20E06D
:1007E00030E040E85FE38DD588230CF010E0112362
:1007F00029F081E090E09A8F898F42C011E06D89E5
:100800007E898F89988D20E03FEF4FE757E423D50D
:1008100018160CF010E0112351F169897A898B893F
:100820009C8920E030E040E251E420D4DC01CB019F
:10083000BC01CD0159D2DC01CB019A8F898F12C046
:1008400089E190E09C8F8B8F8B8D9C8D8C01C801F2
:100850000197F1F78C011C8F0B8F898D9A8D019771
:100860009A8F898F898D9A8D009751F716C06D895F
:100870007E898F89988D38D2DC01CB019A8F898F40
:10088000898D9A8D9E8F8D8F8D8D9E8D8C01F80117
:100890003197F1F78F011E8F0D8F8091690086953A
:1008A0008093690080916A00880F80936A00898133
:1008B0009A8101969A83898389819A8188309105EA
:1008C0000CF45ACF88E390E0FC0110826E960FB6CC
:1008D000F894DEBF0FBECDBFCF91DF911F910F9176
:1008E00008950F931F93DF93CF93CDB7DEB76C9727
:1008F0000FB6F894DEBF0FBECDBF1092680020C1C6
:1009000080E090E0A6E1B3E489839A83AB83BC8363
:1009100069817A818B819C8120E030E04AE753E451
:10092000A5D3DC01CB018D839E83AF83B88711E013
:100930006D817E818F81988520E030E040E85FE323
:10094000E0D488230CF010E0112329F081E090E03E
:100950009A87898742C011E06D817E818F81988559
:1009600020E03FEF4FE757E476D418160CF010E084
:10097000112351F169817A818B819C8120E030E0E3
:1009800040E251E473D3DC01CB01BC01CD01ACD119
:10099000DC01CB019A87898712C089E190E09C87AE
:1009A0008B878B859C858C01C8010197F1F78C01A1
:1009B0001C870B8789859A8501979A8789878985FE
:1009C0009A85009751F716C06D817E818F81988539
:1009D0008BD1DC01CB019A87898789859A859E878F
:1009E0008D878D859E858C01F8013197F1F78F01F8
:1009F0001E870D8788E390E028E330E0F90120812D
:100A0000220F2F5FFC01208388E390E0FC018081AE
:100A10008F3F09F090C01092680088C080E090E09D
:100A2000A6E1B3E48F87988BA98BBA8B6F85788901
:100A300089899A8920E030E04AE753E417D3DC0142
:100A4000CB018B8B9C8BAD8BBE8B11E06B897C8932
:100A50008D899E8920E030E040E85FE352D488230E
:100A60000CF010E0112329F081E090E0988F8F8B3B
:100A700042C011E06B897C898D899E8920E03FEF1F
:100A80004FE757E4E8D318160CF010E0112351F1AA
:100A90006F85788989899A8920E030E040E251E4C5
:100AA000E5D2DC01CB01BC01CD011ED1DC01CB01C3
:100AB000988F8F8B12C089E190E09A8F898F898DF2
:100AC0009A8D8C01C8010197F1F78C011A8F098F5B
:100AD0008F89988D0197988F8F8B8F89988D00972C
:100AE00051F716C06B897C898D899E89FDD0DC0108
:100AF000CB01988F8F8B8F89988D9C8F8B8F8B8D4F
:100B00009C8D8C01F8013197F1F78F011C8F0B8FB1
:100B100088E390E028E330E0F9012081220FFC0116
:100B20002083809168008F5F8093680080916800C7
:100B3000883008F473CF809168008F5F80936800DD
:100B400080916800883008F4DBCE88E390E0FC01F7
:100B500010826C960FB6F894DEBF0FBECDBFCF915A
:100B6000DF911F910F9108950F931F93DF93CF9300
:100B7000CDB7DEB72E970FB6F894DEBF0FBECDBF50
:100B800088E390E021E0FC0120831092680089C096
:100B900080E090E0A6E1B3E489839A83AB83BC83D1
:100BA00069817A818B819C8120E030E04AE753E4BF
:100BB0005DD2DC01CB018D839E83AF83B88711E0CA
:100BC0006D817E818F81988520E030E040E85FE391
:100BD00098D388230CF010E0112329F081E090E0F5
:100BE0009A87898742C011E06D817E818F819885C7
:100BF00020E03FEF4FE757E42ED318160CF010E03B
:100C0000112351F169817A818B819C8120E030E050
:100C100040E251E42BD2DC01CB01BC01CD0164D018
:100C2000DC01CB019A87898712C089E190E09C871B
:100C30008B878B859C858C01C8010197F1F78C010E
:100C40001C870B8789859A8501979A87898789856B
:100C50009A85009751F716C06D817E818F819885A6
:100C600043D0DC01CB019A87898789859A859E8745
:100C70008D878D859E858C01F8013197F1F78F0165
:100C80001E870D8788E390E028E330E0F90120819A
:100C9000220F2F5FFC012083809168008F5F80937B
:100CA000680080916800883008F472CF2E960FB6E5
:100CB000F894DEBF0FBECDBFCF91DF911F910F9192
:100CC0000895DF93CF93CDB7DEB787E390E02FEFA2
:100CD000FC01208388E390E021E0FC012083BFD960
:100CE00083DBC1DCFEDDFBCFEF92FF920F931F93FE
:100CF0007B018C0120E030E040E05FE4D7D287FD4B
:100D00000FC0C801B70120E030E040E05FE483D1CC
:100D100023D39B01AC01205030404040504805C0D7
:100D2000C801B70119D39B01AC01B901CA011F91D8
:100D30000F91FF90EF900895A0E0B0E0E1EAF6E0B7
:100D4000EDC4FC01EA018081823008F438C1DB0186
:100D50009C91923008F430C1843059F4943009F0F9
:100D60002EC1918111968C911197981709F021C18C
:100D700026C1943009F420C19230B1F4823009F0D8
:100D80001EC1CA01AF0128E0DA010D90AD01DC01FE
:100D90000D92CD012150C1F7DB0111968C91119775
:100DA0009181892389830AC1823009F405C1C280F7
:100DB000D380DB0112966D907C901397248135814E
:100DC000468157811496ED90FD900D911C911797D7
:100DD000C601861997095C0197FF04C0AA24BB24A9
:100DE000A81AB90AB0E2AB16B1040CF061C018162B
:100DF00019066CF5370148010A2C04C096948794B3
:100E0000779467940A94D2F781E090E0A0E0B0E094
:100E10000A2C04C0880F991FAA1FBB1F0A94D2F77F
:100E20000197A109B1098E219F21A023B123EE24AE
:100E3000FF248701E3940097A105B10519F4EE247E
:100E4000FF248701E628F728082919293CC00097C4
:100E5000D1F1CA0CDB1C39014A010A2C04C096945A
:100E60008794779467940A94D2F781E090E0A0E0A9
:100E7000B0E00A2C04C0880F991FAA1FBB1F0A9458
:100E8000D2F70197A109B10982239323A423B523A3
:100E900021E030E040E050E00097A105B10519F4F1
:100EA00020E030E0A90126293729482959290BC01B
:100EB0006C147D0424F4EE24FF24870104C0630134
:100EC00020E030E0A9018181FB019181891709F4BB
:100ED00045C0882349F0D801C701821B930BA40B9E
:100EE000B50B9C01AD0104C02E193F09400B510BFD
:100EF00057FD04C01982DB82CA820BC081E089835E
:100F0000DB82CA8250954095309521953F4F4F4FD7
:100F10005F4F2C833D834E835F830DC0880F991FE5
:100F2000AA1FBB1F8C839D83AE83BF838A819B8155
:100F300001979B838A838C819D81AE81BF819C01B7
:100F4000AD0121503040404050402F3FEFEF3E0771
:100F5000EFEF4E07EFE35E0708F30BC08983DB82F8
:100F6000CA822E0D3F1D401F511F2C833D834E838F
:100F70005F8383E088832C813D814E815F8157FFB1
:100F80001DC0DA01C90181709070A070B0705695D3
:100F9000479537952795822B932BA42BB52B8C83C4
:100FA0009D83AE83BF838A819B8101969B838A83C5
:100FB00005C0E0E6F0E003C0FB0101C0FE01CF0187
:100FC000CDB7DEB7EEE0C6C3A0E2B0E0E9EEF7E0F1
:100FD000ADC369837A838B839C832D833E834F8348
:100FE000588789E0E82EF12CEC0EFD1ECE0101960B
:100FF000B701CED28E010F5E1F4FCE010596B8010C
:10100000C7D2C701B801AE01475E5F4F95DEF3D18D
:10101000A096E6E0A7C3A0E2B0E0E0E1F8E086C376
:1010200069837A838B839C832D833E834F83588788
:101030008E01075F1F4FCE010196B801A9D291E141
:10104000E92EF12CEC0EFD1ECE010596B701A0D2C3
:101050008A8991E089278A8BC801B701AE01475E72
:101060005F4F6ADEC8D1A096E6E07CC3A0E2B0E0A4
:10107000EBE3F8E04FC369837A838B839C832D83F2
:101080003E834F835887CE010196BE01675F7F4F35
:101090007FD2CE010596BE016F5E7F4F79D29985D2
:1010A000923078F089898230C0F0943019F482301F
:1010B00041F4CBC0843019F4923079F4C6C0923038
:1010C00051F481E02A859A89291709F480E08A87FA
:1010D000CE010996BCC0823051F481E02A859A89FC
:1010E000291709F480E08A8BCE014196B0C06D8447
:1010F0007E848F849888ED88FE880F89188DE0E2C1
:10110000F0E080E090E0DC01AA24BB24650120E04F
:1011100030E0A901B3016170707061157105D1F003
:101120002E0D3F1D401F511F15012601280E391E8F
:101130004A1E5B1E81E090E0A0E0B0E02E153F0566
:101140004007510718F080E090E0DC01820D931D0C
:10115000A41DB51DAA0CBB1CCC1CDD1C17FF09C0AF
:1011600061E0262E312C412C512CA228B328C42812
:10117000D528319749F0EE0CFF1C001F111F9694E3
:10118000879477946794C6CF6B897C89EB85FC85BF
:101190006E0F7F1F6E5F7F4F7C8F6B8F61E0EA85E4
:1011A0007A89E71709F460E06A8F6B8D7C8D10C037
:1011B000FC01E170F070309729F05695479537950E
:1011C00027955068B695A795979587956F5F7F4F40
:1011D000B7FDEECF0CC0880F991FAA1FBB1F57FD8C
:1011E0008160220F331F441F551F615070408030B3
:1011F000E0E09E07E0E0AE07E0E4BE0760F36B8F3F
:101200007C8F6FE7E62EF12C012D112DE822F922BB
:101210000A231B2360E4E616F1040105110561F4BD
:1012200087FD0AC0211531054105510529F0805C73
:101230009F4FAF4FBF4F80788D8F9E8FAF8FB8A3DA
:1012400083E0898FCE01499602C080E690E0D3D03A
:10125000A096E2E17BC2A8E1B0E0E0E3F9E066C27B
:1012600069837A838B839C832D833E834F83588746
:101270008E01075F1F4FCE010196B80189D181E130
:10128000E82EF12CEC0EFD1ECE010596B70180D1A3
:101290008985823038F08989823020F0C801B70111
:1012A000E0D101C08FEF6896E6E05CC2A8E1B0E053
:1012B000EBE5F9E03BC269837A838B839C832D83C2
:1012C0003E834F8358878E01075F1F4FCE010196E3
:1012D000B8015ED181E1E82EF12CEC0EFD1ECE01AD
:1012E0000596B70155D18985823038F089898230D9
:1012F00020F0C801B701B5D101C08FEF6896E6E0D4
:1013000031C2A8E1B0E0E6E8F9E010C269837A836F
:101310008B839C832D833E834F8358878E01075F89
:101320001F4FCE010196B80133D181E1E82EF12C97
:10133000EC0EFD1ECE010596B7012AD189858230BB
:1013400038F08989823020F0C801B7018AD101C004
:1013500081E06896E6E006C2ACE0B0E0E1EBF9E0DF
:10136000E9C169837A838B839C83CE010196BE0198
:101370006B5F7F4F0DD18D81823081F1823070F1B2
:10138000843021F48E81882369F10AC02F81388549
:1013900037FD24C06E812F3131053CF0662311F1F9
:1013A00020E030E040E050E821C08EE190E0821B78
:1013B000930B29853A854B855C8504C056954795E6
:1013C000379527958A95D2F7662381F050954095F9
:1013D000309521953F4F4F4F5F4F08C020E030E0E0
:1013E000A90104C02FEF3FEF4FEF5FE7B901CA013A
:1013F0002C96E2E0BBC1EF92FF920F931F93CF9325
:10140000DF93FC0124813581468157816181808190
:10141000823020F44061EFEFF0E0A3C0843009F4A3
:101420009BC0823009F492C0211531054105510558
:1014300009F48FC00280F381E02D8FEFE238F807C6
:101440000CF05AC0C2E8DFEFCE1BDF0BCA31D1056A
:101450006CF579018A010C2E04C016950795F79456
:10146000E7940A94D2F781E090E0A0E0B0E00C2E7F
:1014700004C0880F991FAA1FBB1F0A94D2F70197B7
:10148000A109B10982239323A423B52321E030E0ED
:1014900040E050E00097A105B10519F420E030E0EC
:1014A000A9012E293F29402B512B03C020E030E019
:1014B000A901DA01C9018F779070A070B0708034F3
:1014C0009105A105B10539F427FF09C0205C3F4F04
:1014D0004F4F5F4F04C0215C3F4F4F4F5F4FE1E0E4
:1014E000F0E0203080E0380780E0480780E45807CB
:1014F00028F5E0E0F0E022C0E038F1056CF5E158B5
:10150000FF4FDA01C9018F779070A070B0708034FE
:101510009105A105B10539F427FF09C0205C3F4FB3
:101520004F4F5F4F04C0215C3F4F4F4F5F4F57FFFE
:1015300005C05695479537952795319687E056957E
:101540004795379527958A95D1F70BC0E0E0F0E0F5
:1015500005C0E0E0F0E005C0EFEFF0E020E030E0B3
:10156000A9018E2F879588278795942F9F77679558
:1015700066276795E695E22EA92FA82BFE2FF62B5E
:10158000622F732F8A2F9F2FCDB7DEB7E6E0EAC018
:10159000DC01FB012C9111963C91119712968C91D4
:1015A0001297482F4F7750E0982F991F9927991F2E
:1015B00013966C911397862F880F892B90E0661FE6
:1015C0006627661F6183009739F5211531054105AE
:1015D000510511F482E029C082E89FEF9383828352
:1015E00067E0220F331F441F551F6A95D1F783E030
:1015F000808309C0220F331F441F551F82819381AE
:10160000019793838283203080E0380780E0480789
:1016100080E4580778F320C08F3F910579F42115B5
:1016200031054105510519F484E08083089544FF94
:1016300003C081E0808310C010820EC08F5790409D
:101640009383828383E0808387E0220F331F441FCC
:10165000551F8A95D1F75064248335834683578379
:101660000895FC01DB019081923008F449C08C910F
:10167000823008F445C0943051F461818430B1F572
:1016800011962C91119730E0261B310941C084300E
:1016900021F0923041F48230B1F111968C91119782
:1016A0008823A1F12DC06181823001F111968C91C6
:1016B00011976817D9F42281338112968D919C91EC
:1016C00013978217930794F028173907BCF02481E9
:1016D00035814681578114968D919D910D90BC91D5
:1016E000A02D82179307A407B50718F4662341F0CD
:1016F0000DC0281739074A075B0728F4662331F025
:1017000021E030E005C020E030E002C02FEF3FEFE5
:10171000C90108952F923F924F925F926F927F92EC
:101720008F929F92AF92BF92CF92DF92EF92FF92F1
:101730000F931F93CF93DF93CDB7DEB7CA1BDB0B9D
:101740000FB6F894DEBF0FBECDBF09942A88398842
:1017500048885F846E847D848C849B84AA84B98449
:10176000C884DF80EE80FD800C811B81AA81B98155
:10177000CE0FD11D0FB6F894DEBF0FBECDBFED0169
:061780000895F894FFCF6C
:0817860000000000000000005B
:00000001FF
