:1000000012C024C023C022C021C020C01FC01EC0F7
:100010001DC01CC01BC01AC019C018C017C016C014
:1000200015C014C013C011241FBECFE5D4E0DEBF3D
:10003000CDBF10E0A0E6B0E0E4E2FDE102C0059033
:100040000D92A836B107D9F701D36ACED9CFDF9385
:10005000CF93CDB7DEB715D3D1D4CF91DF9108952B
:10006000DF93CF93CDB7DEB70CD3CF91DF91089557
:100070000F931F93DF93CF93CDB7DEB72E970FB6B5
:10008000F894DEBF0FBECDBFFCD588E390E0FC0145
:10009000108282E390E0FC01108280E090E0A8E40E
:1000A000B2E489839A83AB83BC8369817A818B8133
:1000B0009C8120E030E04AE753E4A7DADC01CB0181
:1000C0008D839E83AF83B88711E06D817E818F81A0
:1000D000988520E030E040E85FE3E2DB88230CF025
:1000E00010E0112329F081E090E09A87898742C0CF
:1000F00011E06D817E818F81988520E03FEF4FE791
:1001000057E478DB18160CF010E0112351F16981E7
:100110007A818B819C8120E030E040E251E475DA05
:10012000DC01CB01BC01CD01AED8DC01CB019A874B
:10013000898712C089E190E09C878B878B859C859D
:100140008C01C8010197F1F78C011C870B87898509
:100150009A8501979A87898789859A85009751F7AB
:1001600016C06D817E818F8198858DD8DC01CB0191
:100170009A87898789859A859E878D878D859E85B3
:100180008C01F8013197F1F78F011E870D87BED6DC
:100190002E960FB6F894DEBF0FBECDBFCF91DF9184
:1001A0001F910F9108950F931F93DF93CF93CDB7B6
:1001B000DEB7EC970FB6F894DEBF0FBECDBF82E37B
:1001C00090E021E0FC01208388E390E020E8FC013E
:1001D000208380E090E0A8E4B2E48D839E83AF8327
:1001E000B8876D817E818F81988520E030E04AE775
:1001F00053E40BDADC01CB0189879A87AB87BC8794
:1002000011E069857A858B859C8520E030E040E8A7
:100210005FE346DB88230CF010E0112329F081E036
:1002200090E09E878D8742C011E069857A858B8535
:100230009C8520E03FEF4FE757E4DCDA18160CF01E
:1002400010E0112351F16D817E818F81988520E02E
:1002500030E040E251E4D9D9DC01CB01BC01CD0151
:1002600012D8DC01CB019E878D8712C089E190E016
:10027000988B8F878F8598898C01C8010197F1F73A
:100280008C01188B0F878D859E8501979E878D87A2
:100290008D859E85009751F716C069857A858B8577
:1002A0009C85F1D7DC01CB019E878D878D859E854E
:1002B0009A8B898B89899A898C01F8013197F1F79A
:1002C0008F011A8B098B1A82198291C088E390E002
:1002D00028E330E0F90120812695FC01208382E3A8
:1002E00090E022E330E0F9012081220FFC0120831D
:1002F00080E090E0A8E4B2E48B8B9C8BAD8BBE8B4E
:100300006B897C898D899E8920E030E04AE753E43F
:100310007CD9DC01CB018F8B988FA98FBA8F11E02C
:100320006F89788D898D9A8D20E030E040E85FE319
:10033000B7DA88230CF010E0112329F081E090E077
:100340009C8F8B8F42C011E06F89788D898D9A8D3B
:1003500020E03FEF4FE757E44DDA18160CF010E0BD
:10036000112351F16B897C898D899E8920E030E0D1
:1003700040E251E44AD9DC01CB01BC01CD0183D775
:10038000DC01CB019C8F8B8F12C089E190E09E8FA6
:100390008D8F8D8D9E8D8C01C8010197F1F78C0199
:1003A0001E8F0D8F8B8D9C8D01979C8F8B8F8B8DCE
:1003B0009C8D009751F716C06F89788D898D9A8D25
:1003C00062D7DC01CB019C8F8B8F8B8D9C8D98A38A
:1003D0008F8F8F8D98A18C01F8013197F1F78F01E4
:1003E00018A30F8F89819A8101969A8389838981C5
:1003F0009A81883091050CF469CF82E390E020E87F
:10040000FC01208388E390E021E0FC01208380E070
:1004100090E0A8E4B2E489A39AA3ABA3BCA369A12A
:100420007AA18BA19CA120E030E04AE753E4EDD80B
:10043000DC01CB018DA39EA3AFA3B8A711E06DA1F2
:100440007EA18FA198A520E030E040E85FE328DAA4
:1004500088230CF010E0112329F081E090E09AA7A6
:1004600089A742C011E06DA17EA18FA198A520E0CF
:100470003FEF4FE757E4BED918160CF010E01123F8
:1004800051F169A17AA18BA19CA120E030E040E26A
:1004900051E4BBD8DC01CB01BC01CD01F4D6DC01B9
:1004A000CB019AA789A712C089E190E09CA78BA7EE
:1004B0008BA59CA58C01C8010197F1F78C011CA7A5
:1004C0000BA789A59AA501979AA789A789A59AA597
:1004D000009751F716C06DA17EA18FA198A5D3D624
:1004E000DC01CB019AA789A789A59AA59EA78DA70C
:1004F0008DA59EA58C01F8013197F1F78F011EA7FC
:100500000DA71C821B8291C088E390E028E330E0B5
:10051000F9012081220FFC01208382E390E022E395
:1005200030E0F90120812695FC01208380E090E0F5
:10053000A8E4B2E48FA798ABA9ABBAAB6FA578A932
:1005400089A99AA920E030E04AE753E45ED8DC01AB
:10055000CB018BAB9CABADABBEAB11E06BA97CA967
:100560008DA99EA920E030E040E85FE399D9882377
:100570000CF010E0112329F081E090E098AF8FABF0
:1005800042C011E06BA97CA98DA99EA920E03FEF94
:100590004FE757E42FD918160CF010E0112351F152
:1005A0006FA578A989A99AA920E030E040E251E43A
:1005B0002CD8DC01CB01BC01CD0165D6DC01CB011F
:1005C00098AF8FAB12C089E190E09AAF89AF89AD47
:1005D0009AAD8C01C8010197F1F78C011AAF09AFF0
:1005E0008FA998AD019798AF8FAB8FA998AD009761
:1005F00051F716C06BA97CA98DA99EA944D6DC0130
:10060000CB0198AF8FAB8FA998AD9CAF8BAF8BAD63
:100610009CAD8C01F8013197F1F78F011CAF0BAF46
:100620008B819C8101969C838B838B819C818830FC
:1006300091050CF469CFEC960FB6F894DEBF0FBEAF
:10064000CDBFCF91DF911F910F910895DF93CF938D
:10065000CDB7DEB787E390E02FEFFC01208381E385
:1006600090E02FEFFC01208388E390E0FC011082F2
:1006700082E390E0FC011082EADCF2DCF9DC93DD3D
:10068000F3CF0F931F93DF93CF93CDB7DEB7AE9722
:100690000FB6F894DEBF0FBECDBF82E390E021E03D
:1006A000FC0120831A82198288C080E090E0A8E4CF
:1006B000B2E48D839E83AF83B8876D817E818F8105
:1006C000988520E030E04AE753E49FD7DC01CB0176
:1006D00089879A87AB87BC8711E069857A858B8586
:1006E0009C8520E030E040E85FE3DAD888230CF016
:1006F00010E0112329F081E090E09E878D8742C0B1
:1007000011E069857A858B859C8520E03FEF4FE776
:1007100057E470D818160CF010E0112351F16D81D8
:100720007E818F81988520E030E040E251E46DD7F2
:10073000DC01CB01BC01CD01A6D5DC01CB019E873C
:100740008D8712C089E190E0988B8F878F8598897B
:100750008C01C8010197F1F78C01188B0F878D85EB
:100760009E8501979E878D878D859E85009751F781
:1007700016C069857A858B859C8585D5DC01CB0182
:100780009E878D878D859E859A8B898B89899A898D
:100790008C01F8013197F1F78F011A8B098B82E3F5
:1007A00090E022E330E0F9012081220FFC01208358
:1007B00089819A8101969A83898389819A81883077
:1007C00091050CF472CF88E390E021E0FC012083D6
:1007D0001C821B8288C080E090E0A8E4B2E48B8B8E
:1007E0009C8BAD8BBE8B6B897C898D899E8920E02B
:1007F00030E04AE753E409D7DC01CB018F8B988FB7
:10080000A98FBA8F11E06F89788D898D9A8D20E03C
:1008100030E040E85FE344D888230CF010E0112377
:1008200029F081E090E09C8F8B8F42C011E06F89AE
:10083000788D898D9A8D20E03FEF4FE757E4DAD726
:1008400018160CF010E0112351F16B897C898D8909
:100850009E8920E030E040E251E4D7D6DC01CB01B4
:10086000BC01CD0110D5DC01CB019C8F8B8F12C058
:1008700089E190E09E8F8D8F8D8D9E8D8C01C801BA
:100880000197F1F78C011E8F0D8F8B8D9C8D019739
:100890009C8F8B8F8B8D9C8D009751F716C06F8925
:1008A000788D898D9A8DEFD4DC01CB019C8F8B8F55
:1008B0008B8D9C8D98A38F8F8F8D98A18C01F801C3
:1008C0003197F1F78F0118A30F8F88E390E028E3A9
:1008D00030E0F9012081220FFC0120838B819C8173
:1008E00001969C838B838B819C81883091050CF4CD
:1008F00072CF80E090E0A8E4B2E489A39AA3ABA30E
:10090000BCA369A17AA18BA19CA120E030E04AE7B9
:1009100053E47BD6DC01CB018DA39EA3AFA3B8A784
:1009200011E06DA17EA18FA198A520E030E040E804
:100930005FE3B6D788230CF010E0112329F081E0A3
:1009400090E09AA789A742C011E06DA17EA18FA176
:1009500098A520E03FEF4FE757E44CD718160CF06E
:1009600010E0112351F169A17AA18BA19CA120E093
:1009700030E040E251E449D6DC01CB01BC01CD01BD
:1009800082D4DC01CB019AA789A712C089E190E04B
:100990009CA78BA78BA59CA58C01C8010197F1F79B
:1009A0008C011CA70BA789A59AA501979AA789A7CF
:1009B00089A59AA5009751F716C06DA17EA18FA1B8
:1009C00098A561D4DC01CB019AA789A789A59AA52E
:1009D0009EA78DA78DA59EA58C01F8013197F1F7F3
:1009E0008F011EA70DA7AE960FB6F894DEBF0FBEFF
:1009F000CDBFCF91DF911F910F9108950F931F935A
:100A0000DF93CF93CDB7DEB7A0970FB6F894DEBFD4
:100A10000FBECDBF88E390E020E8FC0120831A825E
:100A2000198288C080E090E0A8E4B2E48D839E83C0
:100A3000AF83B8876D817E818F81988520E030E01B
:100A40004AE753E4E2D5DC01CB0189879A87AB877B
:100A5000BC8711E069857A858B859C8520E030E034
:100A600040E85FE31DD788230CF010E0112329F044
:100A700081E090E09E878D8742C011E069857A858C
:100A80008B859C8520E03FEF4FE757E4B3D61816DF
:100A90000CF010E0112351F16D817E818F819885DA
:100AA00020E030E040E251E4B0D5DC01CB01BC01F4
:100AB000CD01E9D3DC01CB019E878D8712C089E18E
:100AC00090E0988B8F878F8598898C01C80101975A
:100AD000F1F78C01188B0F878D859E8501979E8776
:100AE0008D878D859E85009751F716C069857A851B
:100AF0008B859C85C8D3DC01CB019E878D878D8536
:100B00009E859A8B898B89899A898C01F801319706
:100B1000F1F78F011A8B098B88E390E028E330E02E
:100B2000F90120812695FC01208389819A81019613
:100B30009A83898389819A81883091050CF472CFD8
:100B400082E390E020E8FC0120831C821B8288C0A5
:100B500080E090E0A8E4B2E48B8B9C8BAD8BBE8BE5
:100B60006B897C898D899E8920E030E04AE753E4D7
:100B70004CD5DC01CB018F8B988FA98FBA8F11E0F8
:100B80006F89788D898D9A8D20E030E040E85FE3B1
:100B900087D688230CF010E0112329F081E090E043
:100BA0009C8F8B8F42C011E06F89788D898D9A8DD3
:100BB00020E03FEF4FE757E41DD618160CF010E089
:100BC000112351F16B897C898D899E8920E030E069
:100BD00040E251E41AD5DC01CB01BC01CD0153D375
:100BE000DC01CB019C8F8B8F12C089E190E09E8F3E
:100BF0008D8F8D8D9E8D8C01C8010197F1F78C0131
:100C00001E8F0D8F8B8D9C8D01979C8F8B8F8B8D65
:100C10009C8D009751F716C06F89788D898D9A8DBC
:100C200032D3DC01CB019C8F8B8F8B8D9C8D98A355
:100C30008F8F8F8D98A18C01F8013197F1F78F017B
:100C400018A30F8F82E390E022E330E0F9012081C6
:100C50002695FC0120838B819C8101969C838B834C
:100C60008B819C81883091050CF472CFA0960FB6D1
:100C7000F894DEBF0FBECDBFCF91DF911F910F91D2
:100C800008950F931F93DF93CF93CDB7DEB7A0974F
:100C90000FB6F894DEBF0FBECDBF82E390E021E037
:100CA000FC0120831A82198289C080E090E0A8E4C8
:100CB000B2E48D839E83AF83B8876D817E818F81FF
:100CC000988520E030E04AE753E49FD4DC01CB0173
:100CD00089879A87AB87BC8711E069857A858B8580
:100CE0009C8520E030E040E85FE3DAD588230CF013
:100CF00010E0112329F081E090E09E878D8742C0AB
:100D000011E069857A858B859C8520E03FEF4FE770
:100D100057E470D518160CF010E0112351F16D81D5
:100D20007E818F81988520E030E040E251E46DD4EF
:100D3000DC01CB01BC01CD01A6D2DC01CB019E8739
:100D40008D8712C089E190E0988B8F878F85988975
:100D50008C01C8010197F1F78C01188B0F878D85E5
:100D60009E8501979E878D878D859E85009751F77B
:100D700016C069857A858B859C8585D2DC01CB017F
:100D80009E878D878D859E859A8B898B89899A8987
:100D90008C01F8013197F1F78F011A8B098B82E3EF
:100DA00090E022E330E0F9012081220F2F5FFC0167
:100DB000208389819A8101969A83898389819A8186
:100DC000883091050CF471CF88E390E021E0FC01BC
:100DD00020831C821B8289C080E090E0A8E4B2E4FA
:100DE0008B8B9C8BAD8BBE8B6B897C898D899E890F
:100DF00020E030E04AE753E408D4DC01CB018F8BDC
:100E0000988FA98FBA8F11E06F89788D898D9A8D0F
:100E100020E030E040E85FE343D588230CF010E0A9
:100E2000112329F081E090E09C8F8B8F42C011E06C
:100E30006F89788D898D9A8D20E03FEF4FE757E4D9
:100E4000D9D418160CF010E0112351F16B897C896C
:100E50008D899E8920E030E040E251E4D6D3DC0168
:100E6000CB01BC01CD010FD2DC01CB019C8F8B8F5C
:100E700012C089E190E09E8F8D8F8D8D9E8D8C01AB
:100E8000C8010197F1F78C011E8F0D8F8B8D9C8D02
:100E900001979C8F8B8F8B8D9C8D009751F716C07F
:100EA0006F89788D898D9A8DEED1DC01CB019C8F75
:100EB0008B8F8B8D9C8D98A38F8F8F8D98A18C019C
:100EC000F8013197F1F78F0118A30F8F88E390E0B5
:100ED00028E330E0F9012081220F2F5FFC012083FD
:100EE0008B819C8101969C838B838B819C81883034
:100EF00091050CF471CFA0960FB6F894DEBF0FBE2B
:100F0000CDBFCF91DF911F910F9108950F931F9344
:100F1000DF93CF93CDB7DEB7AE970FB6F894DEBFB1
:100F20000FBECDBF88E390E02FEFFC01208382E36A
:100F300090E02FEFFC0120831A82198288C080E0A4
:100F400090E0A8E4B2E48D839E83AF83B8876D817F
:100F50007E818F81988520E030E04AE753E455D3C5
:100F6000DC01CB0189879A87AB87BC8711E0698553
:100F70007A858B859C8520E030E040E85FE390D463
:100F800088230CF010E0112329F081E090E09E8787
:100F90008D8742C011E069857A858B859C8520E02C
:100FA0003FEF4FE757E426D418160CF010E011235A
:100FB00051F16D817E818F81988520E030E040E2A3
:100FC00051E423D3DC01CB01BC01CD015CD1DC01B8
:100FD000CB019E878D8712C089E190E0988B8F8727
:100FE0008F8598898C01C8010197F1F78C01188BC6
:100FF0000F878D859E8501979E878D878D859E8520
:10100000009751F716C069857A858B859C853BD101
:10101000DC01CB019E878D878D859E859A8B898B80
:1010200089899A898C01F8013197F1F78F011A8B20
:10103000098B88E390E028E330E0F90120812695D0
:10104000FC01208389819A8101969A838983898111
:101050009A81883091050CF472CF80E090E0A8E48A
:10106000B2E48B8B9C8BAD8BBE8B6B897C898D891D
:101070009E8920E030E04AE753E4C7D2DC01CB018F
:101080008F8B988FA98FBA8F11E06F89788D898D9A
:101090009A8D20E030E040E85FE302D488230CF032
:1010A00010E0112329F081E090E09C8F8B8F42C0EB
:1010B00011E06F89788D898D9A8D20E03FEF4FE7A1
:1010C00057E498D318160CF010E0112351F16B89F6
:1010D0007C898D899E8920E030E040E251E495D200
:1010E000DC01CB01BC01CD01CED0DC01CB019C8F5A
:1010F0008B8F12C089E190E09E8F8D8F8D8D9E8D9C
:101100008C01C8010197F1F78C011E8F0D8F8B8D1B
:101110009C8D01979C8F8B8F8B8D9C8D009751F7A9
:1011200016C06F89788D898D9A8DADD0DC01CB0189
:101130009C8F8B8F8B8D9C8D98A38F8F8F8D98A17B
:101140008C01F8013197F1F78F0118A30F8F1C82E2
:101150001B8288C080E090E0A8E4B2E489A39AA34F
:10116000ABA3BCA369A17AA18BA19CA120E030E034
:101170004AE753E44AD2DC01CB018DA39EA3AFA37F
:10118000B8A711E06DA17EA18FA198A520E030E065
:1011900040E85FE385D388230CF010E0112329F0A9
:1011A00081E090E09AA789A742C011E06DA17EA1DD
:1011B0008FA198A520E03FEF4FE757E41BD3181607
:1011C0000CF010E0112351F169A17AA18BA19CA12F
:1011D00020E030E040E251E418D2DC01CB01BC0158
:1011E000CD0151D0DC01CB019AA789A712C089E1BA
:1011F00090E09CA78BA78BA59CA58C01C8010197AB
:10120000F1F78C011CA70BA789A59AA501979AA7AE
:1012100089A789A59AA5009751F716C06DA17EA14F
:101220008FA198A530D0DC01CB019AA789A789A509
:101230009AA59EA78DA78DA59EA58C01F801319733
:10124000F1F78F011EA70DA782E390E022E330E0C3
:10125000F90120812695FC0120838B819C810196D8
:101260009C838B838B819C81893091050CF472CF98
:10127000AE960FB6F894DEBF0FBECDBFCF91DF9113
:101280001F910F910895EF92FF920F931F937B018F
:101290008C0120E030E040E05FE4D7D287FD0FC052
:1012A000C801B70120E030E040E05FE483D123D300
:1012B0009B01AC01205030404040504805C0C8015F
:1012C000B70119D39B01AC01B901CA011F910F915C
:1012D000FF90EF900895A0E0B0E0E0E7F9E0EDC402
:1012E000FC01EA018081823008F438C1DB019C9165
:1012F000923008F430C1843059F4943009F02EC192
:10130000918111968C911197981709F021C126C1EE
:10131000943009F420C19230B1F4823009F01EC13A
:10132000CA01AF0128E0DA010D90AD01DC010D9298
:10133000CD012150C1F7DB0111968C91119791815C
:10134000892389830AC1823009F405C1C280D38010
:10135000DB0112966D907C90139724813581468134
:1013600057811496ED90FD900D911C911797C60131
:10137000861997095C0197FF04C0AA24BB24A81A08
:10138000B90AB0E2AB16B1040CF061C01816190628
:101390006CF5370148010A2C04C096948794779421
:1013A00067940A94D2F781E090E0A0E0B0E00A2CC4
:1013B00004C0880F991FAA1FBB1F0A94D2F7019778
:1013C000A109B1098E219F21A023B123EE24FF247E
:1013D0008701E3940097A105B10519F4EE24FF24D9
:1013E0008701E628F728082919293CC00097D1F180
:1013F000CA0CDB1C39014A010A2C04C0969487945C
:10140000779467940A94D2F781E090E0A0E0B0E08E
:101410000A2C04C0880F991FAA1FBB1F0A94D2F779
:101420000197A109B10982239323A423B52321E0C5
:1014300030E040E050E00097A105B10519F420E04C
:1014400030E0A90126293729482959290BC06C14F5
:101450007D0424F4EE24FF24870104C0630120E00E
:1014600030E0A9018181FB019181891709F445C010
:10147000882349F0D801C701821B930BA40BB50B3D
:101480009C01AD0104C02E193F09400B510B57FDC3
:1014900004C01982DB82CA820BC081E08983DB82AF
:1014A000CA8250954095309521953F4F4F4F5F4FE1
:1014B0002C833D834E835F830DC0880F991FAA1F25
:1014C000BB1F8C839D83AE83BF838A819B810197E1
:1014D0009B838A838C819D81AE81BF819C01AD01FC
:1014E00021503040404050402F3FEFEF3E07EFEF9C
:1014F0004E07EFE35E0708F30BC08983DB82CA82E5
:101500002E0D3F1D401F511F2C833D834E835F8353
:1015100083E088832C813D814E815F8157FF1DC010
:10152000DA01C90181709070A070B070569547952E
:1015300037952795822B932BA42BB52B8C839D83DA
:10154000AE83BF838A819B8101969B838A8305C07A
:10155000E0E6F0E003C0FB0101C0FE01CF01CDB722
:10156000DEB7EEE0C6C3A0E2B0E0E8EBFAE0ADC360
:1015700069837A838B839C832D833E834F83588733
:1015800089E0E82EF12CEC0EFD1ECE010196B7018C
:10159000CED28E010F5E1F4FCE010596B801C7D285
:1015A000C701B801AE01475E5F4F95DEF3D1A0964B
:1015B000E6E0A7C3A0E2B0E0EFEDFAE086C36983FE
:1015C0007A838B839C832D833E834F8358878E0140
:1015D000075F1F4FCE010196B801A9D291E1E92E14
:1015E000F12CEC0EFD1ECE010596B701A0D28A8922
:1015F00091E089278A8BC801B701AE01475E5F4F32
:101600006ADEC8D1A096E6E07CC3A0E2B0E0EAE0E2
:10161000FBE04FC369837A838B839C832D833E8356
:101620004F835887CE010196BE01675F7F4F7FD2FF
:10163000CE010596BE016F5E7F4F79D299859230BB
:1016400078F089898230C0F0943019F4823041F406
:10165000CBC0843019F4923079F4C6C0923051F482
:1016600081E02A859A89291709F480E08A87CE01CA
:101670000996BCC0823051F481E02A859A892917E5
:1016800009F480E08A8BCE014196B0C06D847E84DF
:101690008F849888ED88FE880F89188DE0E2F0E04D
:1016A00080E090E0DC01AA24BB24650120E030E06A
:1016B000A901B3016170707061157105D1F02E0D33
:1016C0003F1D401F511F15012601280E391E4A1EBD
:1016D0005B1E81E090E0A0E0B0E02E153F054007E2
:1016E000510718F080E090E0DC01820D931DA41DED
:1016F000B51DAA0CBB1CCC1CDD1C17FF09C061E08A
:10170000262E312C412C512CA228B328C428D528B0
:10171000319749F0EE0CFF1C001F111F969487941F
:1017200077946794C6CF6B897C89EB85FC856E0FB7
:101730007F1F6E5F7F4F7C8F6B8F61E0EA857A89B8
:10174000E71709F460E06A8F6B8D7C8D10C0FC0197
:10175000E170F070309729F05695479537952795A9
:101760005068B695A795979587956F5F7F4FB7FDA2
:10177000EECF0CC0880F991FAA1FBB1F57FD8160B9
:10178000220F331F441F551F615070408030E0E02E
:101790009E07E0E0AE07E0E4BE0760F36B8F7C8F4E
:1017A0006FE7E62EF12C012D112DE822F9220A23F4
:1017B0001B2360E4E616F1040105110561F487FDC1
:1017C0000AC0211531054105510529F0805C9F4F64
:1017D000AF4FBF4F80788D8F9E8FAF8FB8A383E0C0
:1017E000898FCE01499602C080E690E0D3D0A096C2
:1017F000E2E17BC2A8E1B0E0EFEFFBE066C2698303
:101800007A838B839C832D833E834F8358878E01FD
:10181000075F1F4FCE010196B80189D181E1E82E03
:10182000F12CEC0EFD1ECE010596B70180D1898505
:10183000823038F08989823020F0C801B701E0D1C8
:1018400001C08FEF6896E6E05CC2A8E1B0E0EAE292
:10185000FCE03BC269837A838B839C832D833E8328
:101860004F8358878E01075F1F4FCE010196B80145
:101870005ED181E1E82EF12CEC0EFD1ECE01059625
:10188000B70155D18985823038F08989823020F0BE
:10189000C801B701B5D101C08FEF6896E6E031C24B
:1018A000A8E1B0E0E5E5FCE010C269837A838B83B0
:1018B0009C832D833E834F8358878E01075F1F4F84
:1018C000CE010196B80133D181E1E82EF12CEC0E66
:1018D000FD1ECE010596B7012AD18985823038F0E8
:1018E0008989823020F0C801B7018AD101C081E026
:1018F0006896E6E006C2ACE0B0E0E0E8FCE0E9C1F2
:1019000069837A838B839C83CE010196BE016B5FD2
:101910007F4F0DD18D81823081F1823070F1843022
:1019200021F48E81882369F10AC02F81388537FD23
:1019300024C06E812F3131053CF0662311F120E087
:1019400030E040E050E821C08EE190E0821B930B34
:1019500029853A854B855C8504C056954795379512
:1019600027958A95D2F7662381F05095409530955A
:1019700021953F4F4F4F5F4F08C020E030E0A90155
:1019800004C02FEF3FEF4FEF5FE7B901CA012C967C
:10199000E2E0BBC1EF92FF920F931F93CF93DF93CF
:1019A000FC012481358146815781618180818230AB
:1019B00020F44061EFEFF0E0A3C0843009F49BC055
:1019C000823009F492C0211531054105510509F411
:1019D0008FC00280F381E02D8FEFE238F8070CF022
:1019E0005AC0C2E8DFEFCE1BDF0BCA31D1056CF560
:1019F00079018A010C2E04C016950795F794E79497
:101A00000A94D2F781E090E0A0E0B0E00C2E04C090
:101A1000880F991FAA1FBB1F0A94D2F70197A1092B
:101A2000B10982239323A423B52321E030E040E0D1
:101A300050E00097A105B10519F420E030E0A901BC
:101A40002E293F29402B512B03C020E030E0A90173
:101A5000DA01C9018F779070A070B0708034910561
:101A6000A105B10539F427FF09C0205C3F4F4F4F56
:101A70005F4F04C0215C3F4F4F4F5F4FE1E0F0E00C
:101A8000203080E0380780E0480780E4580728F5D8
:101A9000E0E0F0E022C0E038F1056CF5E158FF4FDE
:101AA000DA01C9018F779070A070B0708034910511
:101AB000A105B10539F427FF09C0205C3F4F4F4F06
:101AC0005F4F04C0215C3F4F4F4F5F4F57FF05C032
:101AD0005695479537952795319687E056954795C2
:101AE000379527958A95D1F70BC0E0E0F0E005C067
:101AF000E0E0F0E005C0EFEFF0E020E030E0A90129
:101B00008E2F879588278795942F9F7767956627CF
:101B10006795E695E22EA92FA82BFE2FF62B622FB4
:101B2000732F8A2F9F2FCDB7DEB7E6E0EAC0DC0126
:101B3000FB012C9111963C91119712968C91129762
:101B4000482F4F7750E0982F991F9927991F139688
:101B50006C911397862F880F892B90E0661F66275C
:101B6000661F6183009739F521153105410551053F
:101B700011F482E029C082E89FEF9383828367E0BB
:101B8000220F331F441F551F6A95D1F783E08083CE
:101B900009C0220F331F441F551F82819381019773
:101BA00093838283203080E0380780E0480780E418
:101BB000580778F320C08F3F910579F4211531053E
:101BC0004105510519F484E08083089544FF03C062
:101BD00081E0808310C010820EC08F5790409383A5
:101BE000828383E0808387E0220F331F441F551FC9
:101BF0008A95D1F7506424833583468357830895AB
:101C0000FC01DB019081923008F449C08C91823054
:101C100008F445C0943051F461818430B1F51196D7
:101C20002C91119730E0261B310941C0843021F0FE
:101C3000923041F48230B1F111968C911197882342
:101C4000A1F12DC06181823001F111968C91119723
:101C50006817D9F42281338112968D919C91139744
:101C60008217930794F028173907BCF02481358137
:101C70004681578114968D919D910D90BC91A02D18
:101C800082179307A407B50718F4662341F00DC027
:101C9000281739074A075B0728F4662331F021E04B
:101CA00030E005C020E030E002C02FEF3FEFC90177
:101CB00008952F923F924F925F926F927F928F92F0
:101CC0009F92AF92BF92CF92DF92EF92FF920F93CB
:101CD0001F93CF93DF93CDB7DEB7CA1BDB0B0FB6D5
:101CE000F894DEBF0FBECDBF09942A883988488892
:101CF0005F846E847D848C849B84AA84B984C88428
:101D0000DF80EE80FD800C811B81AA81B981CE0F1E
:101D1000D11D0FB6F894DEBF0FBECDBFED01089503
:041D2000F894FFCF65
:081D24000000000000000000B7
:00000001FF
